:020000040800F2
:1000000000C00020E94E0008594C00085F4C000871
:10001000654C00086B4C0008714C000800000000A3
:10002000000000000000000000000000774C000805
:10003000834C0008000000008F4C00089B4C000817
:10004000314F0008314F0008314F0008314F000890
:10005000314F0008314F0008314F0008314F000880
:10006000314F0008314F0008314F0008314F000870
:10007000314F0008314F0008314F0008314F000860
:10008000314F0008314F0008314F0008314F000850
:10009000314F0008314F0008314F0008314F000840
:1000A000314F0008314F0008314F0008314F000830
:1000B000314F0008314F0008314F0008314F000820
:1000C000314F0008314F0008314F0008314F000810
:1000D000314F0008314F0008314F0008314F000800
:1000E000314F0008314F0008314F0008314F0008F0
:1000F000314F0008314F0008314F0008314F0008E0
:10010000314F0008314F0008314F0008314F0008CF
:10011000314F0008314F0008314F0008314F0008BF
:10012000314F0008314F0008314F0008314F0008AF
:1001300000000000000000000000000000000000BF
:1001400000000000000000000000000000000000AF
:10015000000000000000000000000000000000009F
:10016000000000000000000000000000000000008F
:10017000000000000000000000000000000000007F
:10018000000000000000000000000000000000006F
:10019000000000000000000000000000000000005F
:1001A000000000000000000000000000000000004F
:1001B000000000000000000000000000000000003F
:1001C000000000000000000000000000000000002F
:1001D000000000000000000000000000000000001F
:0401E0005FF8E0F1F3
:1001E80010B5054C237833B9044B13B10448AFF369
:1001F80000800123237010BD74000020000000005F
:100208009475000808B5034B1BB103490348AFF3C5
:10021800008008BD000000007800002094750008E8
:1002280070B54FF0FF0C4CF4E06C1CEA11541DBF84
:100238001CEA135594EA0C0F95EA0C0F00F0DEF84F
:100248002C4481EA030621EA4C5123EA4C5350EA34
:10025800013518BF52EA033541F4801143F4801385
:1002680038D0A0FB02CE4FF00005E1FB02E506F016
:100278000042E0FB03E54FF00006E1FB03569CF06B
:10028800000F18BF4EF0010EA4F1FF04B6F5007F71
:1002980064F5407404D25FEA4E0E6D4146EB0606E3
:1002A80042EAC62141EA55514FEAC52040EA5E506C
:1002B8004FEACE2EB4F1FD0C88BFBCF5E06F1ED816
:1002C800BEF1004F08BF5FEA500E50F1000041EB4D
:1002D800045170BD06F0004646EA010140EA0200FA
:1002E80081EA0301B4EB5C04C2BFD4EB0C0541EA1C
:1002F800045170BD41F480114FF0000E013C00F331
:10030800AB8014F1360FDEBF002001F0004170BD54
:10031800C4F10004203C35DA0C341BDC04F114046D
:10032800C4F1200500FA05F320FA04F001FA05F2F9
:1003380040EA020001F0004221F0004110EBD370C6
:1003480021FA04F642EB06015EEA430E08BF20EAF2
:10035800D37070BDC4F10C04C4F1200500FA04F395
:1003680020FA05F001FA04F240EA020001F0004127
:1003780010EBD37041F100015EEA430E08BF20EA9A
:10038800D37070BDC4F1200500FA05F24EEA020EE2
:1003980020FA04F301FA05F243EA020321FA04F011
:1003A80001F0004121FA04F220EA020000EBD370C8
:1003B8005EEA430E08BF20EAD37070BD94F0000FC8
:1003C8000FD101F00046400041EB010111F4801FFC
:1003D80008BF013CF7D041EA060195F0000F18BFAD
:1003E800704703F00046520043EB030313F4801FE9
:1003F80008BF013DF7D043EA0603704794EA0C0FA3
:100408000CEA135518BF95EA0C0F0CD050EA4106B8
:1004180018BF52EA4306D1D181EA030101F0004135
:100428004FF0000070BD50EA410606BF104619465D
:1004380052EA430619D094EA0C0F02D150EA013669
:1004480013D195EA0C0F05D152EA03361CBF1046AA
:1004580019460AD181EA030101F0004141F0FE4149
:1004680041F470014FF0000070BD41F0FE4141F4CD
:10047800780170BD81F0004102E000BF83F00043C5
:1004880030B54FEA41044FEA430594EA050F08BF27
:1004980090EA020F1FBF54EA000C55EA020C7FEAEB
:1004A800645C7FEA655C00F0E2804FEA5454D4EB68
:1004B8005555B8BF6D420CDD2C4480EA020281EA32
:1004C800030382EA000083EA010180EA020281EA6A
:1004D8000303362D88BF30BD11F0004F4FEA0131BC
:1004E8004FF4801C4CEA113102D0404261EB4101CB
:1004F80013F0004F4FEA03334CEA133302D0524251
:1005080063EB430394EA050F00F0A780A4F101040C
:10051800D5F1200E0DDB02FA0EFC22FA05F2801846
:1005280041F1000103FA0EF2801843FA05F359412C
:100538000EE0A5F120050EF1200E012A03FA0EFCAB
:1005480028BF4CF0020C43FA05F3C01851EBE371D5
:1005580001F0004507D54FF0000EDCF1000C7EEBF2
:1005680000006EEB0101B1F5801F1BD3B1F5001F30
:100578000CD349085FEA30004FEA3C0C04F101044F
:100588004FEA445212F5800F80F09A80BCF1004F78
:1005980008BF5FEA500C50F1000041EB045141EAFA
:1005A800050130BD5FEA4C0C404141EB0101013CC3
:1005B80028BFB1F5801FE9D291F0000F04BF0146B2
:1005C8000020B1FA81F308BF2033A3F10B03B3F184
:1005D80020020CDA0C3208DD02F1140CC2F10C0214
:1005E80001FA0CF021FA02F10CE002F11402D8BF72
:1005F800C2F1200C01FA02F120FA0CFCDCBF41EA3E
:100608000C019040E41AA2BF01EB0451294330BD0C
:100618006FEA04041F3C1CDA0C340EDC04F11404E9
:10062800C4F1200220FA04F001FA02F340EA0300C0
:1006380021FA04F345EA030130BDC4F10C04C4F106
:10064800200220FA02F001FA04F340EA03002946E6
:1006580030BD21FA04F0294630BD94F0000F83F430
:10066800801306BF81F480110134013D4EE77FEA13
:10067800645C18BF7FEA655C29D094EA050F08BF5F
:1006880090EA020F05D054EA000C04BF1946104640
:1006980030BD91EA030F1EBF0021002030BD5FEA84
:1006A800545C05D14000494128BF41F0004130BDAC
:1006B80014F580043CBF01F5801130BD01F0004500
:1006C80045F0FE4141F470014FF0000030BD7FEA73
:1006D800645C1ABF194610467FEA655C1CBF0B466E
:1006E800024650EA013406BF52EA033591EA030F85
:1006F80041F4002130BD00BF90F0000F04BF00217D
:10070800704730B54FF4806404F132044FF00005AF
:100718004FF0000150E700BF90F0000F04BF002128
:10072800704730B54FF4806404F1320410F000458E
:1007380048BF40424FF000013EE700BF42004FEA89
:10074800E2014FEA31014FEA02701FBF12F07F4306
:1007580093F07F4F81F06051704732F07F4208BFBD
:10076800704793F07F4F04BF41F40021704730B5C4
:100778004FF4607401F0004521F000411CE700BF10
:1007880050EA010208BF704730B54FF000050AE093
:1007980050EA010208BF704730B511F0004502D594
:1007A800404261EB41014FF4806404F132045FEA96
:1007B800915C3FF4D8AE4FF003025FEADC0C18BF3F
:1007C80003325FEADC0C18BF033202EBDC02C2F131
:1007D800200300FA03FC20FA02F001FA03FE40EAC3
:1007E8000E0021FA02F11444BDE600BF4A0011D2FE
:1007F80012F5001211D20DD56FF47873B3EB625273
:100808000ED44FEAC12343F0004343EA505323FA7E
:1008180002F070474FF00000704750EA013002D1F3
:100828004FF0FF3070474FF00000704780B588B038
:1008380000AF07F1100300221A605A609A60DA606C
:10084800364B9B69354A43F010039361334B9B69E0
:1008580003F01003FB60FB68304B9B692F4A43F0A1
:10086800200393612D4B9B6903F02003BB60BB6899
:100878002A4B9B69294A43F004039361274B9B69E0
:1008880003F004037B607B68244B9B69234A43F095
:1008980008039361214B9B6903F008033B603B68A5
:1008A80000224FF4C0611E4804F0B8FD00224FF446
:1008B80080711C4804F0B2FD4FF400733B611123B2
:1008C8007B610123BB610223FB6107F11003194619
:1008D800134804F00FFC4FF480733B6111237B61D4
:1008E8000023BB610223FB6107F1100319460D4881
:1008F80004F000FC4FF480633B6101237B6100231B
:10090800BB610223FB6107F110031946044804F098
:10091800F1FB00BF2037BD4680BD00BF001002407C
:10092800001001400008014080B483B000AF0346C6
:10093800FB800D4B4FF480725A610B4B4FF40072E1
:100948005A610A4AFB88D360074B80225A61064BDA
:1009580080221A61044B4FF400721A6100BF0C37F1
:10096800BD4680BC704700BF00100140000C01402C
:1009780080B483B000AF0346FB800D4B4FF4807208
:100988001A610B4B4FF400725A610A4AFB88D36014
:10099800074B80225A61064B80221A61044B4FF4A0
:1009A80000721A6100BF0C37BD4680BC704700BF9B
:1009B80000100140000C014080B483B000AF034632
:1009C800FB7100BFFB795A1EFA71002BFAD100BFE8
:1009D80000BF0C37BD4680BC7047000080B582B0B0
:1009E80000AF1A4B4FF088321A60184B4FF088321C
:1009F8005A60164B0022DA60154B4FF480721A6168
:100A0800134B4FF400725A61114B40225A61022075
:100A1800FFF7D2FF0D4B9B68FB800D4B40221A61FC
:100A28000B4B4FF400721A61084B4FF033321A60C7
:100A3800064B4FF033325A60044B4FF6FF72DA60C0
:100A4800FB8818460837BD4680BD00BF000C014032
:100A58000010014080B582B000AF03460A46FB8013
:100A68001346BB80FB881846FFF75EFF0C4B4FF41C
:100A780080721A610A4B4FF400725A61094ABB88A6
:100A8800D360074B80225A61054B80221A61044BC0
:100A98004FF400721A6100BF0837BD4680BD00BF21
:100AA80000100140000C014080B500AF034B1B89CA
:100AB8001846FFF739FF00BF80BD00BF9400002033
:100AC80080B582B000AF03460A46FB801346BB8060
:100AD800994B9B8841F66312934240F03381964BC1
:100AE8009B79002B63D1944B1A88FB88D31A9BB24D
:100AF800013BFB80904B5B891846FFF715FF8F4B36
:100B08004FF480721A618D4B4FF400725A618C4B0E
:100B18000022DA60894B80225A61884B80221A6150
:100B2800864B4FF400721A61844B4FF480721A613D
:100B3800824B4FF400725A61814B0022DA607F4B7E
:100B480080225A617D4B80221A617C4B4FF40072DF
:100B58001A617A4B4FF480721A61784B4FF4007225
:100B68005A61FB881B0A9AB2754BDA60734B802274
:100B78005A61724B80221A61704B4FF400721A61ED
:100B88006E4B4FF480721A616C4B4FF400725A61CD
:100B9800FB886B4ADBB2D360684B80225A61674B93
:100BA80080221A61654B4FF400721A6161E0624B52
:100BB8005B891846FFF7B8FE604B4FF480721A61E4
:100BC8005E4B4FF400725A61FB881B0A9AB25C4B69
:100BD800DA605A4B80225A61584B80221A61574B6F
:100BE8004FF400721A61554B4FF480721A61534BDF
:100BF8004FF400725A61FB88514ADBB2D3604F4B05
:100C080080225A614D4B80221A614C4B4FF400727E
:100C18001A614A4B4FF480721A61484B4FF40072C4
:100C28005A61454B1B88013B1A12454BDA60434B0E
:100C380080225A61414B80221A61404B4FF4007266
:100C48001A613E4B4FF480721A613C4B4FF40072AC
:100C58005A61394B1B88013B394ADBB2D360374BA9
:100C680080225A61354B80221A61344B4FF400724E
:100C78001A61314B9B891846FFF756FE2F4B4FF4EC
:100C880080721A612D4B4FF400725A61BB881B0A9F
:100C98009AB22B4BDA60294B80225A61274B80226B
:100CA8001A61264B4FF400721A61244B4FF480727C
:100CB8001A61224B4FF400725A61BB88204ADBB29A
:100CC800D3601E4B80225A611C4B80221A611B4B39
:100CD8004FF400721A61194B4FF480721A61174B66
:100CE8004FF400725A61144B5B88013B1A12144B83
:100CF800DA60124B80225A61104B80221A610F4B26
:100D08004FF400721A610D4B4FF480721A610B4B4D
:100D18004FF400725A61084B5B88013B084ADBB20A
:100D2800D360064B80225A61044B80221A61034B20
:100D38004FF400721A61E2E09400002000100140B4
:100D4800000C0140704B9B8845F21052934272D1BF
:100D58006D4B5B891846FFF7E7FD6C4B4FF48072CB
:100D68001A616A4B4FF400725A61FB881B0A9AB2E7
:100D7800674BDA60654B80225A61644B80221A61A6
:100D8800624B4FF400721A615F4B5B8901339BB26F
:100D98001846FFF7C9FD5D4B4FF480721A615B4B33
:100DA8004FF400725A61FB88594ADBB2D360574B43
:100DB80080225A61554B80221A61544B4FF40072BD
:100DC8001A61514B9B891846FFF7AEFD4F4B4FF404
:100DD80080721A614D4B4FF400725A61BB881B0A2E
:100DE8009AB24B4BDA60494B80225A61474B8022BA
:100DF8001A61464B4FF400721A61434B9B890133C9
:100E08009BB21846FFF790FD404B4FF480721A6171
:100E18003E4B4FF400725A61BB883D4ADBB2D36047
:100E28003A4B80225A61394B80221A61374B4FF472
:100E380000721A6163E0344B5B891846FFF774FD52
:100E4800324B4FF480721A61304B4FF400725A6182
:100E5800FB881B0A9AB22E4BDA602C4B80225A610F
:100E68002A4B80221A61294B4FF400721A61274BD2
:100E78004FF480721A61254B4FF400725A61FB8857
:100E8800234ADBB2D360214B80225A611F4B802258
:100E98001A611E4B4FF400721A611B4B9B8918464E
:100EA800FFF742FD194B4FF480721A61174B4FF44C
:100EB80000725A61BB881B0A9AB2154BDA60134B51
:100EC80080225A61114B80221A61104B4FF4007234
:100ED8001A610E4B4FF480721A610C4B4FF400727A
:100EE8005A61BB880A4ADBB2D360084B80225A6138
:100EF800064B80221A61054B4FF400721A6100BF3D
:100F08000837BD4680BD00BF940000200010014096
:100F1800000C014080B584B000AF0346FB7100238C
:100F2800FB810023BB815E4B9B79012B05D15C4B78
:100F38009B8841F66312934209D1594B9B79002B48
:100F480034D1574B9B8841F6631293422ED1FB79DB
:100F5800072B2CD801A252F823F000BF850F0008F8
:100F68008B0F0008910F0008970F00089D0F0008CD
:100F7800A30F0008A90F0008AF0F00080623FB7194
:100F880015E00723FB7112E00423FB710FE0052332
:100F9800FB710CE00123FB7109E00023FB7106E003
:100FA8000323FB7103E00223FB7100E000BFFB7920
:100FB800072B36D801A252F823F000BF2B100008E7
:100FC800E50F0008EF0F0008F90F000803100008EC
:100FD8000D1000081710000821100008FB8943F0C5
:100FE8008003FB811DE0FB8943F04003FB8118E08F
:100FF800FB8943F0C003FB8113E0FB8943F0200326
:10100800FB810EE0FB8943F06003FB8109E0FB896B
:1010180043F0A003FB8104E0FB8943F0E003FB817C
:1010280000BF1F4B9B8845F21052934203D14FF4E7
:101038005853BB8101E03623BB81194B9B8849F289
:101048004132934205D0164B9B8847F289729342EE
:1010580003D1FB8943F00803FB81FA89BB89114658
:101068001846FFF7F7FC0E4B9B8841F66312934234
:1010780028D0FB8903F02003002B13D0084B1A88D3
:10108800074B5B889A421DD2054B1B887B81044B1A
:101098005A88034B1A80024A7B89538012E000BFAA
:1010A800940000207F4B1A887E4B5B889A4209D9AE
:1010B8007C4B1B887B817B4B5A887A4B1A80794AF8
:1010C8007B895380774B9B8845F21052934240F0BE
:1010D800EF80744B5B891846FFF726FC724B4FF480
:1010E80080721A61704B4FF400725A616F4B002284
:1010F800DA606D4B80225A616B4B80221A616A4B11
:101108004FF400721A61674B5B8901339BB2184632
:10111800FFF70AFC644B4FF480721A61624B4FF47C
:1011280000725A61614B0022DA605F4B80225A617B
:101138005D4B80221A615C4B4FF400721A61594B67
:101148005B8902339BB21846FFF7EEFB564B4FF410
:1011580080721A61544B4FF400725A61514B1B88CC
:10116800013B1A12514BDA604F4B80225A614E4BA9
:1011780080221A614C4B4FF400721A61494B5B890B
:1011880003339BB21846FFF7CFFB474B4FF48072EF
:101198001A61454B4FF400725A61424B1B88013B60
:1011A800424ADBB2D360404B80225A613E4B8022D8
:1011B8001A613D4B4FF400721A613A4B9B891846ED
:1011C800FFF7B2FB384B4FF480721A61364B4FF47D
:1011D80000725A61354B0022DA60334B80225A6123
:1011E800314B80221A61304B4FF400721A612D4B3B
:1011F8009B8901339BB21846FFF796FB2A4B4FF4A5
:1012080080721A61284B4FF400725A61274B0022F2
:10121800DA60254B80225A61234B80221A61224BC7
:101228004FF400721A611F4B9B8902339BB2184618
:10123800FFF77AFB1C4B4FF480721A611A4B4FF47C
:1012480000725A61174B5B88013B1A12174BDA6020
:10125800154B80225A61144B80221A61124B4FF4AD
:1012680000721A610F4B9B8903339BB21846FFF734
:101278005BFB0D4B4FF480721A610B4B4FF40072FD
:101288005A61084B5B88013B084ADBB2D360064BC6
:1012980080225A61044B80221A61034B4FF400727A
:1012A8001A61C3E09400002000100140000C0140C6
:1012B800604B5B891846FFF737FB5F4B4FF4807232
:1012C8001A615D4B4FF400725A615C4B0022DA6080
:1012D800594B80225A61584B80221A61564B4FF461
:1012E80000721A61544B4FF480721A61524B4FF4DA
:1012F80000725A61514B0022DA604F4B80225A61CA
:101308004D4B80221A614C4B4FF400721A614A4BC4
:101318004FF480721A61484B4FF400725A61454B82
:101328001B88013B1A12454BDA60434B80225A61F5
:10133800414B80221A61404B4FF400721A613E4BB8
:101348004FF480721A613C4B4FF400725A61394B6A
:101358001B88013B394ADBB2D360374B80225A6184
:10136800354B80221A61344B4FF400721A61314BAD
:101378009B891846FFF7D8FA2F4B4FF480721A61F1
:101388002D4B4FF400725A612C4B0022DA602A4B25
:1013980080225A61284B80221A61274B4FF4007231
:1013A8001A61254B4FF480721A61234B4FF4007277
:1013B8005A61224B0022DA601F4B80225A611E4B71
:1013C80080221A611C4B4FF400721A611A4B4FF4B9
:1013D80080721A61184B4FF400725A61154B5B8882
:1013E800013B1A12154BDA60134B80225A61124BDB
:1013F80080221A61104B4FF400721A610E4B4FF4A1
:1014080080721A610C4B4FF400725A61094B5B8869
:10141800013B0A4ADBB2D360074B80225A61064B74
:1014280080221A61044B4FF400721A6100BF103712
:10143800BD4680BD9400002000100140000C014012
:1014480080B582B000AF0346FB800B46BB801346D5
:101458007B803C4B9B8845F21052934278D1394BA4
:101468005B891846FFF760FA374B4FF480721A61B0
:10147800354B4FF400725A61FB881B0A9AB2334B02
:10148800DA60314B80225A612F4B80221A612E4B31
:101498004FF400721A612B4B5B8901339BB21846DB
:1014A800FFF742FA284B4FF480721A61264B4FF42B
:1014B80000725A61FB88254ADBB2D360224B802236
:1014C8005A61214B80221A611F4B4FF400721A6136
:1014D8001C4B9B891846FFF727FA1B4B4FF4807269
:1014E8001A61194B4FF400725A61BB881B0A9AB2F1
:1014F800164BDA60144B80225A61134B80221A6112
:10150800114B4FF400721A610E4B9B8901339BB249
:101518001846FFF709FA0C4B4FF480721A610A4B10
:101528004FF400725A61BB88084ADBB2D360064B9D
:1015380080225A61044B80221A61034B4FF40072D7
:101548001A6141E19400002000100140000C0140A4
:10155800684B9B8841F66312934240F0D180654BFB
:101568009B79002B06D1634B1A88FB88D31A9BB250
:10157800013BFB805F4B5B891846FFF7D5F95E4B53
:101588004FF480721A615C4B4FF400725A61FB8809
:101598001B0A9AB2594BDA60574B80225A61564B54
:1015A80080221A61544B4FF400721A61524B4FF467
:1015B80080721A61504B4FF400725A61FB884F4A8F
:1015C800DBB2D3604C4B80225A614B4B80221A61AC
:1015D800494B4FF400721A61474B4FF480721A61FD
:1015E800454B4FF400725A61FB881B0A9AB2434B71
:1015F800DA60414B80225A613F4B80221A613E4B90
:101608004FF400721A613C4B4FF480721A613A4BE6
:101618004FF400725A61FB88384ADBB2D360364B0C
:1016280080225A61344B80221A61334B4FF4007286
:101638001A61304B9B891846FFF776F92E4B4FF409
:1016480080721A612C4B4FF400725A61BB881B0AD6
:101658009AB22A4BDA60284B80225A61264B8022A4
:101668001A61254B4FF400721A61234B4FF48072B4
:101678001A61214B4FF400725A61BB881F4ADBB2D2
:10168800D3601D4B80225A611B4B80221A611A4B72
:101698004FF400721A61184B4FF480721A61164B9E
:1016A8004FF400725A61BB881B0A9AB2134BDA6076
:1016B800114B80225A61104B80221A610E4B4FF455
:1016C80000721A610C4B4FF480721A610A4B4FF486
:1016D80000725A61BB88094ADBB2D360064B80228C
:1016E8005A61054B80221A61034B4FF400721A614C
:1016F8006AE000BF9400002000100140000C014087
:10170800494B5B891846FFF70FF9484B4FF4807235
:101718001A61464B4FF400725A61FB881B0A9AB251
:10172800434BDA60414B80225A61404B80221A6158
:101738003E4B4FF400721A613C4B4FF480721A61B1
:101748003A4B4FF400725A61FB88394ADBB2D360D6
:10175800364B80225A61354B80221A61334B4FF445
:1017680000721A61304B9B891846FFF7DDF82F4B42
:101778004FF480721A612D4B4FF400725A61BB8886
:101788001B0A9AB22A4BDA60284B80225A61274BEF
:1017980080221A61254B4FF400721A61234B4FF4D3
:1017A80080721A61214B4FF400725A61BB88204A3B
:1017B800DBB2D3601D4B80225A611C4B80221A6118
:1017C8001A4B4FF400721A61184B4FF480725A6129
:1017D800164B4FF400725A61134B1A89144BDA6096
:1017E800124B80225A61114B80221A610F4B4FF421
:1017F80000721A610D4B4FF480721A610B4B4FF453
:1018080000725A610A4A7B88D360084B80225A6169
:10181800064B80221A61054B4FF400721A6100BF13
:101828000837BD4680BD00BF94000020001001406D
:10183800000C01400000000090B583B000AF0346E3
:10184800FB71BE20FFF770F84B4B4FF480721A61A2
:10185800494B4FF400725A61484B0522DA60464BF7
:1018680080225A61444B80221A61434B4FF4007224
:101878001A61414B4FF480721A613F4B4FF400726A
:101888005A61FB791846FEF747FF39A3D3E90023CD
:10189800FEF7C6FC02460B46384C10461946FEF7C2
:1018A800A5FF0346E360344B80225A61324B802205
:1018B8001A61314B4FF400721A612F4B4FF480724A
:1018C8001A612D4B4FF400725A612C4B0122DA60D9
:1018D800294B80225A61284B80221A61264B4FF4EB
:1018E80000721A61244B4FF480721A61224B4FF434
:1018F80000725A61214BFF22DA601F4B80225A6125
:101908001D4B80221A611C4B4FF400721A611A4B4E
:101918004FF480721A61184B4FF400725A61174BDA
:101928000022DA60144B80225A61134B80221A611C
:10193800114B4FF400721A610F4B4FF480721A6109
:101948000D4B4FF400725A610C4B0022DA600A4BBF
:1019580080225A61084B80221A61074B4FF40072AB
:101968001A6100BF0C37BD4690BD00BFAFF30080C1
:10197800666666666666044000100140000C014019
:1019880080B582B000AF0346FB71584AFB7993716A
:10199800FB79002B51D1554BF0221A80534B4FF451
:1019A800A0725A80514B9B8845F21052934214D131
:1019B8004E4B4FF430521A814C4B4FF428525A81F7
:1019C8004A4B4FF42C529A81484B4FF4F0721A80CC
:1019D800464B4FF448725A8020E0444B9B8841F6AE
:1019E8006312934211D1414B2C221A813F4B2B2277
:1019F8005A813E4B2A229A813C4B4FF4F0721A804E
:101A08003A4B4FF448725A8008E0384B2C221A811E
:101A1800364B2A225A81354B2B229A81334B9B888D
:101A280045F21032934259D1304B4FF4A0721A80CC
:101A38002E4B4FF4F0725A8050E02C4B4FF4A072AA
:101A48001A802A4BF0225A80284B9B8845F2105264
:101A5800934214D1254B4FF430521A81234B4FF443
:101A680028525A81214B4FF42C529A811F4B4FF424
:101A780048721A801D4B4FF4F0725A8020E01B4BBD
:101A88009B8841F66312934211D1184B2C221A817C
:101A9800164B2A225A81154B2B229A81134B4FF44D
:101AA80048721A80114B4FF4F0725A8008E00F4BBD
:101AB8002C221A810D4B2A225A810C4B2B229A81F7
:101AC8000A4B9B8845F21032934207D1074B4FF4DB
:101AD800F0721A80054B4FF4A0725A800020FFF76D
:101AE80019FA00BF0837BD4680BD00BF940000202A
:101AF80080B588B000AFA64B9B69A54A43F00803A0
:101B08009361A34B9B6903F00803BB60BB68A04BC0
:101B18009B699F4A43F0100393619D4B9B6903F0B7
:101B280010037B607B684FF4F863FB6001233B6123
:101B380001237B610323BB6107F10C031946954818
:101B480003F0D8FA4FF6FF73FB6007F10C03194650
:101B5800914803F0CFFA914B5B68FB61FB6923F076
:101B6800E063FB61FB6943F08063FB618B4AFB69BF
:101B78005360322004F0CEFA01210020FEF76AFFFC
:101B8800322004F0C7FAD320FEF7CEFEFEF726FF78
:101B980003461A46824B9A80FEF720FF03461A46F0
:101BA8007F4B9A80FEF71AFF03461A467C4B9A80B1
:101BB8007B4B9B881B029AB2794B9A80FEF70EFFEB
:101BC80003461A46764B9B8813439AB2744B9A8005
:101BD800734B9B8849F24132934200F0CA8004203B
:101BE800FEF7A2FEFEF7FAFE03461A466C4B9A80F1
:101BF800FEF7F4FE03461A46694B9A80FEF7EEFE9E
:101C080003461A46664B9A80654B9B881B029AB21C
:101C1800634B9A80FEF7E2FE03461A46604B9B88A8
:101C280013439AB25E4B9A805D4B9B8848F252529E
:101C3800934203D15A4B47F289729A80584B9B883A
:101C480047F28972934200F09480D420FEF76CFE2C
:101C5800FEF7C4FE03461A46514B9A80FEF7BEFEB5
:101C680003461A464E4B9A80FEF7B8FE03461A46BC
:101C78004B4B9A804A4B9B881B029AB2484B9A80DE
:101C8800FEF7ACFE03461A46454B9B8813439AB2AF
:101C9800434B9A80424B9B8845F21032934268D05E
:101CA80055214FF47040FEF7D5FEAA214FF20100EE
:101CB800FEF7D0FE52214FF20200FEF7CBFE0821BC
:101CC8004FF20300FEF7C6FE01214FF20400FEF7B3
:101CD800C1FE4FF44540FEF727FEFEF77FFE0346A0
:101CE8001A462F4B9A802E4B9B881B029AB22C4B7C
:101CF8009A804CF20150FEF717FEFEF76FFE03467E
:101D08001A46274B9B8813439AB2254B9A80052085
:101D180004F000FA224B9B8845F21052934228D0D7
:101D2800A120FEF701FEFEF759FE03461A461C4B9A
:101D38009A80FEF753FE03461A46194B9A80184BB1
:101D48009B881B029AB2164B9A80FEF747FE034601
:101D58001A46134B9B8813439AB2114B9A80104B27
:101D68009B8845F26172934203D10D4B41F6631291
:101D78009A800B4B9B8819460A4804F021FA084BB5
:101D88009B8849F24132934240F024810CE000BF25
:101D98000010024000100140000C0140000001400A
:101DA80094000020AC750008CF20FEF7BDFD002090
:101DB800FEF7DEFDC120FEF7DBFD3020FEF7D8FD83
:101DC800ED20FEF7B1FD6420FEF7D2FD0320FEF7FB
:101DD800CFFD1220FEF7CCFD8120FEF7C9FDE820DB
:101DE800FEF7A2FD8520FEF7C3FD1020FEF7C0FD1B
:101DF8007A20FEF7BDFDCB20FEF796FD3920FEF7D1
:101E0800B7FD2C20FEF7B4FD0020FEF7B1FD34200D
:101E1800FEF7AEFD0220FEF7ABFDF720FEF784FDCE
:101E28002020FEF7A5FDEA20FEF77EFD0020FEF744
:101E38009FFD0020FEF79CFDC020FEF775FD1B20CE
:101E4800FEF796FDC120FEF76FFD0120FEF790FD1D
:101E5800C520FEF769FD3020FEF78AFD3020FEF729
:101E680087FDC720FEF760FDB720FEF781FD36200D
:101E7800FEF75AFD4820FEF77BFD3A20FEF754FD99
:101E88005520FEF775FDB120FEF74EFD0020FEF748
:101E98006FFD1A20FEF76CFDB620FEF745FD0A20FF
:101EA800FEF766FDA220FEF763FDF220FEF73CFD7B
:101EB8000020FEF75DFD2620FEF736FD0120FEF727
:101EC80057FDE020FEF730FD0F20FEF751FD2A20D8
:101ED800FEF74EFD2820FEF74BFD0820FEF748FDD3
:101EE8000E20FEF745FD0820FEF742FD5420FEF7C0
:101EF8003FFDA920FEF73CFD4320FEF739FD0A20EF
:101F0800FEF736FD0F20FEF733FD0020FEF730FD0B
:101F18000020FEF72DFD0020FEF72AFD0020FEF729
:101F280027FDE120FEF700FD0020FEF721FD15202A
:101F3800FEF71EFD1720FEF71BFD0720FEF718FD14
:101F48001120FEF715FD0620FEF712FD2B20FEF7E7
:101F58000FFD5620FEF70CFD3C20FEF709FD05207D
:101F6800FEF706FD1020FEF703FD0F20FEF700FD2B
:101F78003F20FEF7FDFC3F20FEF7FAFC0F20FEF79E
:101F8800F7FC2B20FEF7D0FC0020FEF7F1FC002028
:101F9800FEF7EEFC0120FEF7EBFC3F20FEF7E8FC25
:101FA8002A20FEF7C1FC0020FEF7E2FC0020FEF725
:101FB800DFFC0020FEF7DCFCEF20FEF7D9FC112047
:101FC800FEF7B2FC782004F0A5F82920FEF7ACFC57
:101FD80002F096BB6D4B9B8847F28972934240F0A2
:101FE800D7801120FEF7A0FC782004F093F8362063
:101FF800FEF79AFC0020FEF7BBFC3A20FEF794FCA3
:102008000520FEF7B5FCB220FEF78EFC0C20FEF78B
:10201800AFFC0C20FEF7ACFC0020FEF7A9FC332037
:10202800FEF7A6FC3320FEF7A3FCB720FEF77CFCE6
:102038003520FEF79DFCBB20FEF776FC3220FEF72C
:1020480097FCC020FEF770FC0C20FEF791FCC22024
:10205800FEF76AFC0120FEF78BFCC320FEF764FC48
:102068001020FEF785FCC420FEF75EFC2020FEF75A
:102078007FFCC620FEF758FC0F20FEF779FCD02025
:10208800FEF752FCA420FEF773FCA120FEF770FCBB
:10209800E020FEF749FCD020FEF76AFC0020FEF79E
:1020A80067FC0220FEF764FC0720FEF761FC0A20AB
:1020B800FEF75EFC2820FEF75BFC3220FEF758FC9A
:1020C8004420FEF755FC4220FEF752FC0620FEF79E
:1020D8004FFC0E20FEF74CFC1220FEF749FC1420A2
:1020E800FEF746FC1720FEF743FCE120FEF71CFC38
:1020F800D020FEF73DFC0020FEF73AFC0220FEF758
:1021080037FC0720FEF734FC0A20FEF731FC2820B4
:10211800FEF72EFC3120FEF72BFC5420FEF728FC9E
:102128004720FEF725FC0E20FEF722FC1C20FEF7B8
:102138001FFC1720FEF71CFC1B20FEF719FC1E20B5
:10214800FEF716FC2A20FEF7EFFB0020FEF710FC36
:102158000020FEF70DFC0020FEF70AFCEF20FEF73A
:1021680007FC2B20FEF7E0FB0020FEF701FC002017
:10217800FEF7FEFB0120FEF7FBFB3F20FEF7F8FB16
:102188002920FEF7D1FB02F0BBBA00BF9400002063
:10219800034B9B8845F21032934240F07C8701E064
:1021A80094000020ED20FEF7BFFB0120FEF7E0FBC6
:1021B800FE20FEF7DDFBEE20FEF7B6FBDE20FEF785
:1021C800D7FB2120FEF7D4FBF120FEF7ADFB012061
:1021D800FEF7CEFBDF20FEF7A7FB1020FEF7C8FBBB
:1021E800C420FEF7A1FB8F20FEF7C2FBC620FEF736
:1021F8009BFB0020FEF7BCFBE220FEF7B9FBE220C8
:10220800FEF7B6FBE220FEF7B3FBBF20FEF78CFB20
:10221800AA20FEF7ADFBB020FEF786FB0D20FEF7E7
:10222800A7FB0020FEF7A4FB0D20FEF7A1FB002072
:10223800FEF79EFB1120FEF79BFB0020FEF798FBA4
:102248001920FEF795FB0020FEF792FB2120FEF7F0
:102258008FFB0020FEF78CFB2D20FEF789FB00206A
:10226800FEF786FB3D20FEF783FB0020FEF780FB90
:102278005D20FEF77DFB0020FEF77AFB5D20FEF770
:1022880077FB0020FEF774FBB120FEF74DFB8020A2
:10229800FEF76EFB0020FEF76BFB8B20FEF768FB5A
:1022A8000020FEF765FB9620FEF762FB0020FEF794
:1022B8005FFBB220FEF738FB0020FEF759FB002039
:1022C800FEF756FB0220FEF753FB0020FEF750FBFB
:1022D8000320FEF74DFB0020FEF74AFBB320FEF774
:1022E80023FB0020FEF744FB0020FEF741FB002003
:1022F800FEF73EFB0020FEF73BFB0020FEF738FB15
:102308000020FEF735FB0020FEF732FB0020FEF729
:102318002FFB0020FEF72CFB0020FEF729FB0020F6
:10232800FEF726FB0020FEF723FB0020FEF720FB2C
:102338000020FEF71DFB0020FEF71AFB0020FEF729
:1023480017FB0020FEF714FB0020FEF711FB00200E
:10235800FEF70EFB0020FEF70BFB0020FEF708FB44
:102368000020FEF705FB0020FEF702FB0020FEF729
:10237800FFFAB420FEF7D8FA8B20FEF7F9FA00200E
:10238800FEF7F6FA9620FEF7F3FA0020FEF7F0FAC9
:10239800A120FEF7EDFA0020FEF7EAFAB520FEF7D5
:1023A800C3FA0220FEF7E4FA0020FEF7E1FA032060
:1023B800FEF7DEFA0020FEF7DBFA0420FEF7D8FA73
:1023C8000020FEF7D5FAB620FEF7AEFA0020FEF799
:1023D800CFFA0020FEF7CCFAB720FEF7A5FA0020C6
:1023E800FEF7C6FA0020FEF7C3FA3F20FEF7C0FA50
:1023F8000020FEF7BDFA5E20FEF7BAFA0020FEF7CD
:10240800B7FA6420FEF7B4FA0020FEF7B1FA8C2080
:10241800FEF7AEFA0020FEF7ABFAAC20FEF7A8FAFA
:102428000020FEF7A5FADC20FEF7A2FA0020FEF74E
:102438009FFA7020FEF79CFA0020FEF799FA902088
:10244800FEF796FA0020FEF793FAEB20FEF790FAD3
:102458000020FEF78DFADC20FEF78AFA0020FEF74E
:1024680087FAB820FEF760FA0020FEF781FA00200C
:10247800FEF77EFA0020FEF77BFA0020FEF778FAD6
:102488000020FEF775FA0020FEF772FA0020FEF72A
:102498006FFA0020FEF76CFABA20FEF745FA2420FE
:1024A800FEF766FA0020FEF763FA0020FEF760FAEE
:1024B8000020FEF75DFAC120FEF736FA2020FEF76D
:1024C80057FA0020FEF754FA5420FEF751FA00207C
:1024D800FEF74EFAFF20FEF74BFA0020FEF748FA07
:1024E800C220FEF721FA0A20FEF742FA0020FEF782
:1024F8003FFA0420FEF73CFA0020FEF739FAC32021
:10250800FEF712FA3C20FEF733FA0020FEF730FA05
:102518003A20FEF72DFA0020FEF72AFA3920FEF7B6
:1025280027FA0020FEF724FA3720FEF721FA0020C8
:10253800FEF71EFA3C20FEF71BFA0020FEF718FAF9
:102548003620FEF715FA0020FEF712FA3220FEF7C1
:102558000FFA0020FEF70CFA2F20FEF709FA0020E8
:10256800FEF706FA2C20FEF703FA0020FEF700FA21
:102578002920FEF7FDF90020FEF7FAF92620FEF7DC
:10258800F7F90020FEF7F4F92420FEF7F1F900200E
:10259800FEF7EEF92420FEF7EBF90020FEF7E8F944
:1025A8002320FEF7E5F90020FEF7E2F93C20FEF7CC
:1025B800DFF90020FEF7DCF93620FEF7D9F9002014
:1025C800FEF7D6F93220FEF7D3F90020FEF7D0F94E
:1025D8002F20FEF7CDF90020FEF7CAF92C20FEF7D0
:1025E800C7F90020FEF7C4F92920FEF7C1F9002039
:1025F800FEF7BEF92620FEF7BBF90020FEF7B8F972
:102608002420FEF7B5F90020FEF7B2F92420FEF7E2
:10261800AFF90020FEF7ACF92320FEF7A9F9002056
:10262800FEF7A6F9C420FEF77FF96220FEF7A0F9AD
:102638000020FEF79DF90520FEF79AF90020FEF725
:1026480097F98420FEF794F90020FEF791F9F0201D
:10265800FEF78EF90020FEF78BF91820FEF788F9AF
:102668000020FEF785F9A420FEF782F90020FEF786
:102678007FF91820FEF77CF90020FEF779F9502041
:10268800FEF776F90020FEF773F90C20FEF770F9D3
:102698000020FEF76DF91720FEF76AF90020FEF713
:1026A80067F99520FEF764F90020FEF761F9F32039
:1026B800FEF75EF90020FEF75BF9E620FEF758F911
:1026C8000020FEF755F9C520FEF72EF93220FEF757
:1026D8004FF90020FEF74CF94420FEF749F9002095
:1026E800FEF746F96520FEF743F90020FEF740F9AA
:1026F8007620FEF73DF90020FEF73AF98820FEF72C
:1027080037F90020FEF734F9C620FEF70DF920202E
:10271800FEF72EF90020FEF72BF91720FEF728F90F
:102728000020FEF725F90120FEF722F90020FEF728
:102738001FF9C720FEF7F8F80020FEF719F9002066
:10274800FEF716F90020FEF713F90020FEF710F93E
:10275800C820FEF7E9F80020FEF70AF90020FEF786
:1027680007F90020FEF704F90020FEF701F9C92057
:10277800FEF7DAF80020FEF7FBF80020FEF7F8F87D
:102788000020FEF7F5F80020FEF7F2F80020FEF72B
:10279800EFF80020FEF7ECF80020FEF7E9F800203B
:1027A800FEF7E6F80020FEF7E3F80020FEF7E0F871
:1027B8000020FEF7DDF80020FEF7DAF80020FEF72B
:1027C800D7F80020FEF7D4F80020FEF7D1F8002053
:1027D800FEF7CEF8E020FEF7A7F81620FEF7C8F8B7
:1027E8000020FEF7C5F81C20FEF7C2F80020FEF70F
:1027F800BFF82120FEF7BCF80020FEF7B9F8362014
:10280800FEF7B6F80020FEF7B3F84620FEF7B0F85A
:102818000020FEF7ADF85220FEF7AAF80020FEF7D8
:10282800A7F86420FEF7A4F80020FEF7A1F87A20A4
:10283800FEF79EF80020FEF79BF88B20FEF798F82D
:102848000020FEF795F89920FEF792F80020FEF791
:102858008FF8A820FEF78CF80020FEF789F8B92039
:10286800FEF786F80020FEF783F8C420FEF780F80C
:102878000020FEF77DF8CA20FEF77AF80020FEF760
:1028880077F8D220FEF774F80020FEF771F8D92007
:10289800FEF76EF80020FEF76BF8E020FEF768F808
:1028A8000020FEF765F8F320FEF762F80020FEF737
:1028B8005FF8E120FEF738F81620FEF759F80020F7
:1028C800FEF756F81C20FEF753F80020FEF750F8E4
:1028D8002220FEF74DF80020FEF74AF83620FEF7D2
:1028E80047F80020FEF744F84520FEF741F800209D
:1028F800FEF73EF85220FEF73BF80020FEF738F8C6
:102908006420FEF735F80020FEF732F87A20FEF74B
:102918002FF80020FEF72CF88B20FEF729F800206E
:10292800FEF726F89920FEF723F80020FEF720F896
:10293800A820FEF71DF80020FEF71AF8B920FEF7C8
:1029480017F80020FEF714F8C420FEF711F800204D
:10295800FEF70EF8CA20FEF70BF80020FEF708F87D
:10296800D220FEF705F80020FEF702F8D820FDF780
:10297800FFFF0020FDF7FCFFE020FDF7F9FF002036
:10298800FDF7F6FFF320FDF7F3FF0020FDF7F0FF5A
:10299800E220FDF7C9FF0520FDF7EAFF0020FDF75B
:1029A800E7FF0B20FDF7E4FF0020FDF7E1FF1B2008
:1029B800FDF7DEFF0020FDF7DBFF3420FDF7D8FF31
:1029C8000020FDF7D5FF4420FDF7D2FF0020FDF7DA
:1029D800CFFF4F20FDF7CCFF0020FDF7C9FF612096
:1029E800FDF7C6FF0020FDF7C3FF7920FDF7C0FF04
:1029F8000020FDF7BDFF8820FDF7BAFF0020FDF796
:102A0800B7FF9720FDF7B4FF0020FDF7B1FFA62020
:102A1800FDF7AEFF0020FDF7ABFFB720FDF7A8FFDD
:102A28000020FDF7A5FFC220FDF7A2FF0020FDF75B
:102A38009FFFC720FDF79CFF0020FDF799FFD120DD
:102A4800FDF796FF0020FDF793FFD620FDF790FFD6
:102A58000020FDF78DFFDD20FDF78AFF0020FDF740
:102A680087FFF320FDF784FF0020FDF781FFE320B7
:102A7800FDF75AFF0520FDF77BFF0020FDF778FFE3
:102A88000A20FDF775FF0020FDF772FF1C20FDF7F7
:102A98006FFF0020FDF76CFF3320FDF769FF002072
:102AA800FDF766FF4420FDF763FF0020FDF760FF98
:102AB8005020FDF75DFF0020FDF75AFF6220FDF76B
:102AC80057FF0020FDF754FF7820FDF751FF002045
:102AD800FDF74EFF8820FDF74BFF0020FDF748FF6C
:102AE8009720FDF745FF0020FDF742FFA620FDF7E0
:102AF8003FFF0020FDF73CFFB720FDF739FF00201E
:102B0800FDF736FFC220FDF733FF0020FDF730FF49
:102B1800C720FDF72DFF0020FDF72AFFD120FDF784
:102B280027FF0020FDF724FFD520FDF721FF002017
:102B3800FDF71EFFDD20FDF71BFF0020FDF718FF46
:102B4800F320FDF715FF0020FDF712FFE420FDF745
:102B5800EBFE0120FDF70CFF0020FDF709FF012027
:102B6800FDF706FF0020FDF703FF0220FDF700FF39
:102B78000020FDF7FDFE2A20FDF7FAFE0020FDF7F4
:102B8800F7FE3C20FDF7F4FE0020FDF7F1FE4B2098
:102B9800FDF7EEFE0020FDF7EBFE5D20FDF7E8FEF9
:102BA8000020FDF7E5FE7420FDF7E2FE0020FDF7AA
:102BB800DFFE8420FDF7DCFE0020FDF7D9FE932020
:102BC800FDF7D6FE0020FDF7D3FEA220FDF7D0FECC
:102BD8000020FDF7CDFEB320FDF7CAFE0020FDF76B
:102BE800C7FEBE20FDF7C4FE0020FDF7C1FEC420CD
:102BF800FDF7BEFE0020FDF7BBFECD20FDF7B8FEB9
:102C08000020FDF7B5FED320FDF7B2FE0020FDF74A
:102C1800AFFEDD20FDF7ACFE0020FDF7A9FEF32096
:102C2800FDF7A6FE0020FDF7A3FEE520FDF77CFEDC
:102C38000020FDF79DFE0020FDF79AFE0020FDF71D
:102C480097FE0020FDF794FE0220FDF791FE00207C
:102C5800FDF78EFE2920FDF78BFE0020FDF788FE8C
:102C68003C20FDF785FE0020FDF782FE4B20FDF796
:102C78007FFE0020FDF77CFE5D20FDF779FE002039
:102C8800FDF776FE7420FDF773FE0020FDF770FE59
:102C98008420FDF76DFE0020FDF76AFE9320FDF706
:102CA80067FE0020FDF764FEA220FDF761FE00200C
:102CB800FDF75EFEB320FDF75BFE0020FDF758FE32
:102CC800BE20FDF755FE0020FDF752FEC420FDF79B
:102CD8004FFE0020FDF74CFECD20FDF749FE0020F9
:102CE800FDF746FED320FDF743FE0020FDF740FE2A
:102CF800DC20FDF73DFE0020FDF73AFEF320FDF74E
:102D080037FE0020FDF734FEE620FDF70DFE11200A
:102D1800FDF72EFE0020FDF72BFE3420FDF728FEE0
:102D28000020FDF725FE5620FDF722FE0020FDF7C6
:102D38001FFE7620FDF71CFE0020FDF719FE772008
:102D4800FDF716FE0020FDF713FE6620FDF710FEC6
:102D58000020FDF70DFE8820FDF70AFE0020FDF794
:102D680007FE9920FDF704FE0020FDF701FEBB20B9
:102D7800FDF7FEFD0020FDF7FBFD9920FDF7F8FDAE
:102D88000020FDF7F5FD6620FDF7F2FD0020FDF7B8
:102D9800EFFD5520FDF7ECFD0020FDF7E9FD55207E
:102DA800FDF7E6FD0020FDF7E3FD4520FDF7E0FD1A
:102DB8000020FDF7DDFD4320FDF7DAFD0020FDF7DB
:102DC800D7FD4420FDF7D4FD0020FDF7D1FDE72015
:102DD800FDF7AAFD3220FDF7CBFD0020FDF7C8FD69
:102DE8005520FDF7C5FD0020FDF7C2FD7620FDF753
:102DF800BFFD0020FDF7BCFD6620FDF7B9FD0020F2
:102E0800FDF7B6FD6720FDF7B3FD0020FDF7B0FD27
:102E18006720FDF7ADFD0020FDF7AAFD8720FDF72F
:102E2800A7FD0020FDF7A4FD9920FDF7A1FD0020D6
:102E3800FDF79EFDBB20FDF79BFD0020FDF798FDEB
:102E48009920FDF795FD0020FDF792FD7720FDF70D
:102E58008FFD0020FDF78CFD4420FDF789FD002043
:102E6800FDF786FD5620FDF783FD0020FDF780FD68
:102E78002320FDF77DFD0020FDF77AFD3320FDF7C7
:102E880077FD0020FDF774FD4520FDF771FD00205A
:102E9800FDF76EFDE820FDF747FD0020FDF768FD12
:102EA8000020FDF765FD9920FDF762FD0020FDF784
:102EB8005FFD8720FDF75CFD0020FDF759FD8820A8
:102EC800FDF756FD0020FDF753FD7720FDF750FD77
:102ED8000020FDF74DFD6620FDF74AFD0020FDF7B7
:102EE80047FD8820FDF744FD0020FDF741FDAA209D
:102EF800FDF73EFD0020FDF73BFDBB20FDF738FD4B
:102F08000020FDF735FD9920FDF732FD0020FDF783
:102F18002FFD6620FDF72CFD0020FDF729FD55202B
:102F2800FDF726FD0020FDF723FD5520FDF720FDC8
:102F38000020FDF71DFD4420FDF71AFD0020FDF7D8
:102F480017FD4420FDF714FD0020FDF711FD552065
:102F5800FDF70EFD0020FDF70BFDE920FDF7E4FC71
:102F6800AA20FDF705FD0020FDF702FD0020FDF772
:102F7800FFFC0020FDF7FCFC0020FDF7D5FCAA2093
:102F8800FDF7F6FCCF20FDF7CFFC0020FDF7F0FCA5
:102F98000020FDF7EDFC0020FDF7EAFC0020FDF71E
:102FA800E7FC0020FDF7E4FC0020FDF7E1FC002031
:102FB800FDF7DEFC0020FDF7DBFC0020FDF7D8FC68
:102FC8000020FDF7D5FC0020FDF7D2FC0020FDF71E
:102FD800CFFC0020FDF7CCFC0020FDF7C9FC002049
:102FE800FDF7C6FC0020FDF7C3FC0020FDF7C0FC80
:102FF800F020FDF799FC0020FDF7BAFC5020FDF702
:10300800B7FC0020FDF7B4FC0020FDF7B1FC002060
:10301800FDF7AEFCF320FDF787FC0020FDF7A8FCC8
:10302800F920FDF781FC0620FDF7A2FC1020FDF732
:103038009FFC2920FDF79CFC0020FDF799FC3A2015
:10304800FDF772FC5520FDF793FC1120FDF76CFC91
:10305800642003F05FF82920FDF766FC3520FDF7B2
:1030680063FC0020FDF784FC5120FDF75DFCFF2088
:10307800FDF77EFC5320FDF757FC2C20FDF778FC6C
:103088005520FDF751FC8220FDF772FC2C20FDF73E
:103098004BFC01F035BB044B9B8845F21052934220
:1030A80040F0818702E000BF9400002055214FF4D2
:1030B8007040FDF7CFFCAA214FF20100FDF7CAFCD2
:1030C80052214FF20200FDF7C5FC08214FF2030020
:1030D800FDF7C0FC01214FF20400FDF7BBFC0D21F8
:1030E8004FF43040FDF7B6FC0D214BF20100FDF71F
:1030F800B1FC0D214BF20200FDF7ACFC34214FF47A
:103108003640FDF7A7FC34214BF20160FDF7A2FC25
:1031180034214BF20260FDF79DFC0D214FF4314044
:10312800FDF798FC0D214BF20110FDF793FC0D21E2
:103138004BF20210FDF78EFC34214FF43740FDF7B7
:1031480089FC34214BF20170FDF784FC34214BF2E9
:103158000270FDF77FFC00214FF43240FDF77AFC46
:1031680000214BF20120FDF775FC00214BF20220F3
:10317800FDF770FC24214FF43840FDF76BFC242147
:103188004BF60100FDF766FC24214BF60200FDF723
:1031980061FC01214FF43F40FDF75CFC0F214FF427
:1031A8003340FDF757FC0F214BF20130FDF752FC7D
:1031B8000F214BF20230FDF74DFC34214FF439401A
:1031C800FDF748FC34214BF60110FDF743FC342190
:1031D8004BF60210FDF73EFC08214FF43540FDF791
:1031E80039FC08214BF20150FDF734FC08214BF261
:1031F8000250FDF72FFC03214FF44240FDF72AFC53
:1032080024214FF43A40FDF725FC24214BF60120F8
:10321800FDF720FC24214BF60220FDF71BFC0021C2
:103228004FF43C40FDF716FC78214BF60140FDF7C2
:1032380011FC00214BF60240FDF70CFC00214FF475
:103248003D40FDF707FC78214BF60150FDF702FCE5
:1032580000214BF60250FDF7FDFB00214FF43E40E4
:10326800FDF7F8FB64214BF60160FDF7F3FB002145
:103278004FF45140FDF7EEFB33214DF20110FDF7FD
:10328800E9FB00214DF20210FDF7E4FB34214DF279
:103298000310FDF7DFFB00214DF20410FDF7DAFB08
:1032A8003A214DF20510FDF7D5FB00214DF206102D
:1032B800FDF7D0FB4A214DF20710FDF7CBFB0021AB
:1032C8004DF20810FDF7C6FB5C214DF20910FDF721
:1032D800C1FB00214DF20A10FDF7BCFB81214DF224
:1032E8000B10FDF7B7FB00214DF20C10FDF7B2FBF8
:1032F800A6214DF20D10FDF7ADFB00214DF20E1089
:10330800FDF7A8FBE5214DF20F10FDF7A3FB012106
:103318004DF21010FDF79EFB13214DF21110FDF731
:1033280099FB01214DF21210FDF794FB54214DF247
:103338001310FDF78FFB01214DF21410FDF78AFBE6
:1033480082214DF21510FDF785FB01214DF2161073
:10335800FDF780FBCA214DF21710FDF77BFB022118
:103368004DF21810FDF776FB00214DF21910FDF70C
:1033780071FB02214DF21A10FDF76CFB01214DF291
:103388001B10FDF767FB02214DF21C10FDF762FBD5
:1033980034214DF21D10FDF75DFB02214DF21E1088
:1033A800FDF758FB67214DF21F10FDF753FB022173
:1033B8004DF22010FDF74EFB84214DF22110FDF750
:1033C80049FB02214DF22210FDF744FBA4214DF2E6
:1033D8002310FDF73FFB02214DF22410FDF73AFBC5
:1033E800B7214DF22510FDF735FB02214DF22610CD
:1033F800FDF730FBCF214DF22710FDF72BFB022103
:103408004DF22810FDF726FBDE214DF22910FDF7BD
:1034180021FB02214DF22A10FDF71CFBF2214DF28F
:103428002B10FDF717FB02214DF22C10FDF712FBB4
:10343800FE214DF22D10FDF70DFB03214DF22E104C
:10344800FDF708FB10214DF22F10FDF703FB0321B8
:103458004DF23010FDF7FEFA33214DF23110FDF731
:10346800F9FA03214DF23210FDF7F4FA6D214DF20D
:103478003310FDF7EFFA00214FF45240FDF7EAFA56
:1034880033214DF20120FDF7E5FA00214DF202202B
:10349800FDF7E0FA34214DF20320FDF7DBFA0021B5
:1034A8004DF20420FDF7D6FA3A214DF20520FDF73A
:1034B800D1FA00214DF20620FDF7CCFA4A214DF24F
:1034C8000720FDF7C7FA00214DF20820FDF7C2FAE0
:1034D8005C214DF20920FDF7BDFA00214DF20A20CA
:1034E800FDF7B8FA81214DF20B20FDF7B3FA002160
:1034F8004DF20C20FDF7AEFAA6214DF20D20FDF796
:10350800A9FA00214DF20E20FDF7A4FAE5214DF2AB
:103518000F20FDF79FFA01214DF21020FDF79AFACE
:1035280013214DF21120FDF795FA01214DF21220D9
:10353800FDF790FA54214DF21320FDF78BFA012183
:103548004DF21420FDF786FA82214DF21520FDF781
:1035580081FA01214DF21620FDF77CFACA214DF2BD
:103568001720FDF777FA02214DF21820FDF772FABD
:1035780000214DF21920FDF76DFA02214DF21A20B3
:10358800FDF768FA01214DF21B20FDF763FA0221CD
:103598004DF21C20FDF75EFA34214DF21D20FDF797
:1035A80059FA02214DF21E20FDF754FA67214DF217
:1035B8001F20FDF74FFA02214DF22020FDF74AFAAD
:1035C80084214DF22120FDF745FA02214DF22220F7
:1035D800FDF740FAA4214DF22320FDF73BFA022122
:1035E8004DF22420FDF736FAB7214DF22520FDF7DC
:1035F80031FA02214DF22620FDF72CFACF214DF2A7
:103608002720FDF727FA02214DF22820FDF722FA9C
:10361800DE214DF22920FDF71DFA02214DF22A2064
:10362800FDF718FAF2214DF22B20FDF713FA0221CB
:103638004DF22C20FDF70EFAFE214DF22D20FDF75C
:1036480009FA03214DF22E20FDF704FA10214DF25C
:103658002F20FDF7FFF903214DF23020FDF7FAF98D
:1036680033214DF23120FDF7F5F903214DF23220D7
:10367800FDF7F0F96D214DF23320FDF7EBF900214C
:103688004FF45340FDF7E6F933214DF20130FDF7D1
:10369800E1F900214DF20230FDF7DCF934214DF259
:1036A8000330FDF7D7F900214DF20430FDF7D2F9C8
:1036B8003A214DF20530FDF7CDF900214DF20630E3
:1036C800FDF7C8F94A214DF20730FDF7C3F900218B
:1036D8004DF20830FDF7BEF95C214DF20930FDF7D7
:1036E800B9F900214DF20A30FDF7B4F981214DF204
:1036F8000B30FDF7AFF900214DF20C30FDF7AAF9B8
:10370800A6214DF20D30FDF7A5F900214DF20E303E
:10371800FDF7A0F9E5214DF20F30FDF79BF90121E6
:103728004DF21030FDF796F913214DF21130FDF7E7
:1037380091F901214DF21230FDF78CF954214DF227
:103748001330FDF787F901214DF21430FDF782F9A6
:1037580082214DF21530FDF77DF901214DF2163029
:10376800FDF778F9CA214DF21730FDF773F90221F8
:103778004DF21830FDF76EF900214DF21930FDF7C2
:1037880069F902214DF21A30FDF764F901214DF271
:103798001B30FDF75FF902214DF21C30FDF75AF995
:1037A80034214DF21D30FDF755F902214DF21E303E
:1037B800FDF750F967214DF21F30FDF74BF9022153
:1037C8004DF22030FDF746F984214DF22130FDF706
:1037D80041F902214DF22230FDF73CF9A4214DF2C6
:1037E8002330FDF737F902214DF22430FDF732F985
:1037F800B7214DF22530FDF72DF902214DF2263083
:10380800FDF728F9CF214DF22730FDF723F90221E2
:103818004DF22830FDF71EF9DE214DF22930FDF773
:1038280019F902214DF22A30FDF714F9F2214DF26F
:103838002B30FDF70FF902214DF22C30FDF70AF974
:10384800FE214DF22D30FDF705F903214DF22E3002
:10385800FDF700F910214DF22F30FDF7FBF8032199
:103868004DF23030FDF7F6F833214DF23130FDF7E7
:10387800F1F803214DF23230FDF7ECF86D214DF2ED
:103888003330FDF7E7F800214FF45440FDF7E2F834
:1038980033214DF20140FDF7DDF800214DF20240E1
:1038A800FDF7D8F834214DF20340FDF7D3F8002195
:1038B8004DF20440FDF7CEF83A214DF20540FDF7F0
:1038C800C9F800214DF20640FDF7C4F84A214DF22F
:1038D8000740FDF7BFF800214DF20840FDF7BAF8A0
:1038E8005C214DF20940FDF7B5F800214DF20A4080
:1038F800FDF7B0F881214DF20B40FDF7ABF8002140
:103908004DF20C40FDF7A6F8A6214DF20D40FDF74B
:10391800A1F800214DF20E40FDF79CF8E5214DF28B
:103928000F40FDF797F801214DF21040FDF792F88E
:1039380013214DF21140FDF78DF801214DF212408F
:10394800FDF788F854214DF21340FDF783F8012163
:103958004DF21440FDF77EF882214DF21540FDF737
:1039680079F801214DF21640FDF774F8CA214DF29D
:103978001740FDF76FF802214DF21840FDF76AF87D
:1039880000214DF21940FDF765F802214DF21A4069
:10399800FDF760F801214DF21B40FDF75BF80221AD
:1039A8004DF21C40FDF756F834214DF21D40FDF74D
:1039B80051F802214DF21E40FDF74CF867214DF2F7
:1039C8001F40FDF747F802214DF22040FDF742F86D
:1039D80084214DF22140FDF73DF802214DF22240AD
:1039E800FDF738F8A4214DF22340FDF733F8022102
:1039F8004DF22440FDF72EF8B7214DF22540FDF792
:103A080029F802214DF22640FDF724F8CF214DF286
:103A18002740FDF71FF802214DF22840FDF71AF85C
:103A2800DE214DF22940FDF715F802214DF22A401A
:103A3800FDF710F8F2214DF22B40FDF70BF80221AB
:103A48004DF22C40FDF706F8FE214DF22D40FDF712
:103A580001F803214DF22E40FCF7FCFF10214DF236
:103A68002F40FCF7F7FF03214DF23040FCF7F2FF3F
:103A780033214DF23140FCF7EDFF03214DF2324086
:103A8800FCF7E8FF6D214DF23340FCF7E3FF00211E
:103A98004FF45540FCF7DEFF33214DF20150FCF79F
:103AA800D9FF00214DF20250FCF7D4FF34214DF22A
:103AB8000350FCF7CFFF00214DF20450FCF7CAFF7A
:103AC8003A214DF20550FCF7C5FF00214DF2065092
:103AD800FCF7C0FF4A214DF20750FCF7BBFF00215D
:103AE8004DF20850FCF7B6FF5C214DF20950FCF787
:103AF800B1FF00214DF20A50FCF7ACFF81214DF2D5
:103B08000B50FCF7A7FF00214DF20C50FCF7A2FF69
:103B1800A6214DF20D50FCF79DFF00214DF20E50ED
:103B2800FCF798FFE5214DF20F50FCF793FF0121B8
:103B38004DF21050FCF78EFF13214DF21150FCF797
:103B480089FF01214DF21250FCF784FF54214DF2F8
:103B58001350FCF77FFF01214DF21450FCF77AFF58
:103B680082214DF21550FCF775FF01214DF21650D8
:103B7800FCF770FFCA214DF21750FCF76BFF0221CA
:103B88004DF21850FCF766FF00214DF21950FCF772
:103B980061FF02214DF21A50FCF75CFF01214DF242
:103BA8001B50FCF757FF02214DF21C50FCF752FF47
:103BB80034214DF21D50FCF74DFF02214DF21E50ED
:103BC800FCF748FF67214DF21F50FCF743FF022125
:103BD8004DF22050FCF73EFF84214DF22150FCF7B6
:103BE80039FF02214DF22250FCF734FFA4214DF297
:103BF8002350FCF72FFF02214DF22450FCF72AFF37
:103C0800B7214DF22550FCF725FF02214DF2265031
:103C1800FCF720FFCF214DF22750FCF71BFF0221B4
:103C28004DF22850FCF716FFDE214DF22950FCF723
:103C380011FF02214DF22A50FCF70CFFF2214DF240
:103C48002B50FCF707FF02214DF22C50FCF702FF26
:103C5800FE214DF22D50FCF7FDFE03214DF22E50B2
:103C6800FCF7F8FE10214DF22F50FCF7F3FE03216C
:103C78004DF23050FCF7EEFE33214DF23150FCF797
:103C8800E9FE03214DF23250FCF7E4FE6D214DF2BE
:103C98003350FCF7DFFE00214FF45640FCF7DAFE04
:103CA80033214DF20160FCF7D5FE00214DF2026090
:103CB800FCF7D0FE34214DF20360FCF7CBFE002167
:103CC8004DF20460FCF7C6FE3A214DF20560FCF7A0
:103CD800C1FE00214DF20660FCF7BCFE4A214DF200
:103CE8000760FCF7B7FE00214DF20860FCF7B2FE52
:103CF8005C214DF20960FCF7ADFE00214DF20A602F
:103D0800FCF7A8FE81214DF20B60FCF7A3FE002111
:103D18004DF20C60FCF79EFEA6214DF20D60FCF7FB
:103D280099FE00214DF20E60FCF794FEE5214DF25C
:103D38000F60FCF78FFE01214DF21060FCF78AFE40
:103D480013214DF21160FCF785FE01214DF212603E
:103D5800FCF780FE54214DF21360FCF77BFE012135
:103D68004DF21460FCF776FE82214DF21560FCF7E7
:103D780071FE01214DF21660FCF76CFECA214DF26E
:103D88001760FCF767FE02214DF21860FCF762FE2F
:103D980000214DF21960FCF75DFE02214DF21A6018
:103DA800FCF758FE01214DF21B60FCF753FE02217F
:103DB8004DF21C60FCF74EFE34214DF21D60FCF7FD
:103DC80049FE02214DF21E60FCF744FE67214DF2C8
:103DD8001F60FCF73FFE02214DF22060FCF73AFE1F
:103DE80084214DF22160FCF735FE02214DF222605C
:103DF800FCF730FEA4214DF22360FCF72BFE0221D4
:103E08004DF22460FCF726FEB7214DF22560FCF741
:103E180021FE02214DF22660FCF71CFECF214DF257
:103E28002760FCF717FE02214DF22860FCF712FE0E
:103E3800DE214DF22960FCF70DFE02214DF22A60C9
:103E4800FCF708FEF2214DF22B60FCF703FE02217D
:103E58004DF22C60FCF7FEFDFE214DF22D60FCF7C3
:103E6800F9FD03214DF22E60FCF7F4FD10214DF20F
:103E78002F60FCF7EFFD03214DF23060FCF7EAFDFF
:103E880033214DF23160FCF7E5FD03214DF232603C
:103E9800FCF7E0FD6D214DF23360FCF7DBFD5521A9
:103EA8004FF47040FCF7D6FDAA214FF20100FCF751
:103EB800D1FD52214FF20200FCF7CCFD08214FF250
:103EC8000300FCF7C7FD00214FF20400FCF7C2FD18
:103ED800CC214FF43140FCF7BDFD00214BF201101D
:103EE800FCF7B8FD05214FF43640FCF7B3FD70210F
:103EF8004FF43740FCF7AEFD70214BF20170FCF730
:103F0800A9FD01214FF43840FCF7A4FD03214BF62D
:103F18000100FCF79FFD03214BF60200FCF79AFD18
:103F280003214BF60300FCF795FD02214FF43C40BA
:103F3800FCF790FD00214BF60140FCF78BFD0021BA
:103F48004BF60240FCF786FDD0214FF44940FCF7C0
:103F580081FD02214CF60110FCF77CFD50214CF646
:103F68000210FCF777FD50214CF60310FCF772FDA8
:103F780050214CF60410FCF76DFD00214FF454500D
:103F8800FCF768FD55214FF46850FCF763FD4FF4CA
:103F98008850FCF7C9FC012002F0BCF84FF424500B
:103FA800FCF7C2FCACE3A84B9B8841F66312934232
:103FB80040F0A683E220FCF7B7FCA44B4FF48072D4
:103FC8001A61A24B4FF400725A61A14B1D22DA60AC
:103FD8009E4B80225A619D4B80221A619B4B4FF465
:103FE80000721A61994B4FF480721A61974B4FF423
:103FF80000725A61964B0222DA60944B80225A6111
:10400800924B80221A61914B4FF400721A618F4BC8
:104018004FF480721A618D4B4FF400725A618C4BC9
:104028000422DA60894B80225A61884B80221A6107
:10403800864B4FF400721A61012002F06BF8E02001
:10404800FCF772FC814B4FF480721A617F4B4FF47E
:1040580000725A617E4B0122DA607C4B80225A61E1
:104068007A4B80221A61794B4FF400721A610A2048
:1040780002F050F8E020FCF757FC744B4FF48072C4
:104088001A61724B4FF400725A61714B0322DA6065
:104098006E4B80225A616D4B80221A616B4B4FF434
:1040A80000721A610C2002F035F80120FCF73CFC84
:1040B8000A2002F02FF8E620FCF736FC634B4FF499
:1040C80080721A61614B4FF400725A61604B2F2263
:1040D800DA605E4B80225A615C4B80221A615B4B2E
:1040E8004FF400721A61594B4FF480721A61574BA2
:1040F8004FF400725A61564BFF22DA60534B80220C
:104108005A61524B80221A61504B4FF400721A6167
:104118004E4B4FF480721A614C4B4FF400725A6147
:104128004B4BFF22DA60494B80225A61474B802271
:104138001A61464B4FF400721A61B020FCF7F4FB89
:10414800424B4FF480721A61404B4FF400725A612F
:104158003F4B2022DA603D4B80225A613B4B802244
:104168001A613A4B4FF400721A61384B4FF480725F
:104178001A61364B4FF400725A61354B0022DA60EF
:10418800324B80225A61314B80221A612F4B4FF4F7
:1041980000721A612D4B4FF480721A612B4B4FF449
:1041A80000725A612A4B0322DA60284B80225A6136
:1041B800264B80221A61254B4FF400721A61234B5B
:1041C8004FF480721A61214B4FF400725A61204BF0
:1041D80040F21F32DA601D4B80225A611B4B80224D
:1041E8001A611A4B4FF400721A61184B4FF480721F
:1041F8001A61164B4FF400725A61154B0122DA60AE
:10420800124B80225A61114B80221A610F4B4FF4D6
:1042180000721A610D4B4FF480721A610B4B4FF408
:1042280000725A610A4B40F2DF12DA60074B8022B3
:104238005A61064B80221A61044B4FF400721A61CE
:10424800024B4FF4807205E09400002000100140FA
:10425800000C01401A61A34B4FF400725A61A24B43
:104268000022DA609F4B80225A619E4B80221A619D
:104278009C4B4FF400721A61B420FCF755FB994B24
:104288004FF480721A61974B4FF400725A61964B43
:104298000422DA60934B80225A61924B80221A6181
:1042A800904B4FF400721A618E4B4FF480721A6172
:1042B8008C4B4FF400725A618B4B40F21F42DA600C
:1042C800884B80225A61874B80221A61854B4FF4B4
:1042D80000721A61834B4FF480721A61814B4FF45C
:1042E80000725A61804B0022DA607E4B80225A614C
:1042F8007C4B80221A617B4B4FF400721A61794B18
:104308004FF480721A61774B4FF400725A61764B02
:104318002E22DA60734B80225A61724B80221A6116
:10432800704B4FF400721A616E4B4FF480721A6131
:104338006C4B4FF400725A616B4B0022DA60694B88
:1043480080225A61674B80221A61664B4FF40072D3
:104358001A61644B4FF480721A61624B4FF4007219
:104368005A61614B0022DA605E4B80225A615D4BD4
:1043780080221A615B4B4FF400721A61594B4FF45B
:1043880080721A61574B4FF400725A61564B0022E3
:10439800DA60544B80225A61524B80221A61514B89
:1043A8004FF400721A614F4B4FF480721A614D4BF3
:1043B8004FF400725A614C4B0022DA60494B80225C
:1043C8005A61484B80221A61464B4FF400721A61B9
:1043D800B620FCF7A9FA434B4FF480721A61414B9F
:1043E8004FF400725A61404B0222DA603D4B802242
:1043F8005A613C4B80221A613A4B4FF400721A61A1
:10440800384B4FF480721A61364B4FF400725A6180
:10441800354B4FF40372DA60324B80225A61314BCC
:1044280080221A612F4B4FF400721A612D4B4FF402
:1044380080721A612B4B4FF400725A612A4B00228A
:10444800DA60284B80225A61264B80221A61254B5C
:104458004FF400721A61234B4FF480721A61214B9A
:104468004FF400725A61204B1722DA601D4B8022EC
:104478005A611C4B80221A611A4B4FF400721A6160
:10448800184B4FF480721A61164B4FF400725A6140
:10449800154B1522DA60134B80225A61114B80228A
:1044A8001A61104B4FF400721A610E4B4FF4807270
:1044B8001A610C4B4FF400725A610B4B0022DA6000
:1044C800084B80225A61074B80221A61054B4FF432
:1044D80000721A61034B4FF480721A61014B4FF45A
:1044E800007203E000100140000C01405A618D4B3E
:1044F8000022DA608C4B80225A618B4B80221A6131
:10450800894B4FF400721A61F020FCF70DFA864BC4
:104518004FF480721A61844B4FF400725A61814BD8
:104528000322DA60804B80225A617F4B80221A6115
:104538007D4B4FF400721A612920FCF7F5F9D02061
:10454800FCF7F2F9784B4FF480721A61764B4FF40E
:1045580000725A61734B0022DA60734B80225A61F1
:10456800714B80221A61704B4FF400721A61BE20A1
:10457800FCF7DAF96C4B4FF480721A616A4B4FF40E
:1045880000725A61674B0522DA60674B80225A61D4
:10459800654B80221A61644B4FF400721A61624BBA
:1045A8004FF480721A61604B4FF400725A615D4B90
:1045B800FE22DA605C4B80225A615B4B80221A61D2
:1045C800594B4FF400721A61574B4FF480721A61BD
:1045D800554B4FF400725A61524B0122DA60524B2C
:1045E80080225A61504B80221A614F4B4FF400725F
:1045F8001A614D4B4FF480721A614B4B4FF40072A5
:104608005A61484B0022DA60474B80225A61464B78
:1046180080221A61444B4FF400721A61424B4FF4E6
:1046280080721A61404B4FF400725A613D4B002270
:10463800DA603D4B80225A613B4B80221A613A4B2B
:104648004FF400721A61384B4FF480721A61364B7E
:104658004FF400725A61334B0022DA60324B8022E9
:104668005A61314B80221A612F4B4FF400721A6144
:10467800B820FCF759F92C4B4FF480721A612A4B79
:104688004FF400725A61274B0322DA60264B8022CE
:104698005A61254B80221A61234B4FF400721A612C
:1046A800214B4FF480721A611F4B4FF400725A610C
:1046B8001C4B0122DA601C4B80225A611A4B802263
:1046C8001A61194B4FF400721A61BA20FCF72CF9E1
:1046D800154B4FF480721A61134B4FF400725A61F4
:1046E800104B0122DA60104B80225A610E4B802257
:1046F8001A610D4B4FF400721A616420FDF79CF8A3
:104708000020FDF73DF901224FF48061064800F0D2
:1047180085FE4FF6FF7000F009F800BF2037BD4650
:1047280080BD00BF000C01400010014080B584B07E
:1047380000AF0346FB800023FB601A4B1B88BB605D
:10474800184B5B881A46BB6802FB03F3BB60002169
:104758000020FCF7B5F9FCF7A7F90023FB6017E088
:10476800114B4FF480721A610F4B4FF400725A616B
:104778000E4AFB88D3600C4B80225A610A4B802278
:104788001A61094B4FF400721A61FB680133FB6030
:10479800FA68BB689A42E3D300BF00BF1037BD4632
:1047A80080BD00BF9400002000100140000C0140B3
:1047B80090B585B000AF0446084611461A46234610
:1047C800FB800346BB800B46FB701346BB70BB885F
:1047D8007B81BB78DB08DBB21A46BB7803F00703A2
:1047E800DBB2002B14BF01230023DBB21344DBB27E
:1047F800BA785208D2B202FB03F37B72FB78203BF3
:10480800FB7000237B7369E0BB780C2B0BD1FA7823
:10481800797B384813465B0013449B0003440B44E0
:104828001B78FB7319E0BB78102B08D1FA787B7BD7
:10483800314912010A4413441B78FB730DE0BB781D
:10484800182B50D1FA78797B2C481346DB00134497
:104858009B0003440B441B78FB730023BB7335E0B8
:1048680097F90F30002B07DA254B1A88B988FB888F
:104878001846FCF7E5FD0AE097F82030002B06D132
:10488800204B1A88B988FB881846FCF7D9FDFB7BB2
:104898005B00FB73BB880133BB801B4B5B88BA880A
:1048A8009A4222D2BA887B89D21ABB789A420AD114
:1048B8007B89BB80FB880133FB80134B1B88FA88FC
:1048C8009A4207D312E0BB7B0133BB73BB7B072B38
:1048D800C6D900E000BF7B7B01337B737A7B7B7A90
:1048E8009A4291D302E000BF00E000BF1437BD46F2
:1048F80090BD00BF14760008887A00087880000808
:1049080090000020000000209400002090B587B09F
:1049180002AF0446084611461A462346FB80034662
:10492800BB800B467B8013463B80FB88FB737A88F1
:10493800FB8813447B803A88BB8813443B8024E07F
:10494800FA887B889A4207D3FB7BFB8097F8203054
:104958009AB2BB881344BB80BA883B889A421DD25E
:104968007B6A1A7897F82030B988F8880024009470
:10497800FFF71EFF97F820305B08DBB29AB2FB887E
:104988001344FB807B6A01337B627B6A1B787E2B36
:1049980005D87B6A1B781F2BD2D800E000BF00BF68
:1049A8001437BD4690BD000080B586B002AF01F057
:1049B8004FFB00F0D1F8FBF739FF00F0F9F9FDF7EC
:1049C80097F801224FF40071594800F027FD594823
:1049D80001F07CFC0023FB73574B4FF478421A809C
:1049E800564B9B881A463B465549184601F076FCBB
:1049F800FB7B0B2B54D801A252F823F0354A000850
:104A08003F4A0008474A00084F4A0008594A000828
:104A1800634A00086D4A0008774A0008814A00087E
:104A28008B4A0008954A00089F4A00084FF6FF7015
:104A3800FFF77CFE34E00020FFF778FE30E01F200F
:104A4800FFF774FE2CE04FF47840FFF76FFE27E085
:104A58004FF61F00FFF76AFE22E04FF4FC60FFF7F5
:104A680065FE1DE047F6FF70FFF760FE18E04FF6A1
:104A7800E070FFF75BFE13E04FF60740FFF756FEC6
:104A88000EE048F23040FFF751FE09E04CF21860A2
:104A9800FFF74CFE04E04BF64040FFF747FE00BF2F
:104AA800254B4FF478421A80264B01931823009324
:104AB8001823C82228211E20FFF728FF224B019324
:104AC800102300931023C82246211E20FFF71EFF43
:104AD8001E4B0193102300931023C8225A211E2035
:104AE800FFF714FF3B460193102300931023C822BD
:104AF8006E211E20FFF70AFF154B01930C2300932C
:104B08000C23C82282211E20FFF700FFFB7B013304
:104B1800FB73FB7B0C2B01D10023FB734FF48071DB
:104B28000C4800F093FC4FF47A7001F0F3FA5FE759
:104B380000100140BC75000890000020940000207F
:104B4800D0750008DC750008EC750008F8750008D9
:104B5800087600080008014080B590B000AF07F162
:104B6800180328220021184601F022FB3B1D0022D1
:104B78001A605A609A60DA601A610123BB614FF4C7
:104B88008033FB6100233B620123BB6202237B630A
:104B98004FF48033BB634FF4E013FB6307F1180352
:104BA800184600F06DFC0346002B01D000F019F800
:104BB8000F237B600223BB600023FB604FF48063FC
:104BC8003B6100237B613B1D0221184600F0DAFEA1
:104BD8000346002B01D000F004F800BF4037BD4663
:104BE80080BD80B400AF72B600BFFEE780B485B068
:104BF80000AF154B9B69144A43F001039361124BB4
:104C08009B6903F00103BB60BB680F4BDB690E4A6D
:104C180043F08053D3610C4BDB6903F080537B6016
:104C28007B680A4B5B68FB60FB6823F0E063FB6012
:104C3800FB6843F00073FB60044AFB68536000BFE5
:104C48001437BD4680BC7047001002400000014088
:104C580080B400AFFEE780B400AFFEE780B400AFD9
:104C6800FEE780B400AFFEE780B400AFFEE780B493
:104C780000AF00BFBD4680BC704780B400AF00BF26
:104C8800BD4680BC704780B400AF00BFBD4680BC45
:104C9800704780B500AF01F021FA00BF80BD80B534
:104CA80086B000AFF860B9607A6000237B610AE0E3
:104CB800AFF300800146BB685A1CBA60CAB21A70CA
:104CC8007B6901337B617A697B689A42F0DB7B6898
:104CD80018461837BD4680BD80B483B000AF7860F1
:104CE8004FF0FF3318460C37BD4680BC704780B480
:104CF80083B000AF786039603B684FF400525A6067
:104D0800002318460C37BD4680BC704780B483B07A
:104D180000AF7860012318460C37BD4680BC704749
:104D280080B485B000AFF860B9607A600023184697
:104D38001437BD4680BC704780B586B000AF786038
:104D4800144A154BD31A7B617B693B61134B1B6873
:104D5800002B02D1114B124A1A60104B1A687B685B
:104D680013443A699A4207D201F0F8F903460C2233
:104D78001A604FF0FF3309E0084B1B68FB60074BD4
:104D88001A687B681344054A1360FB68184618378D
:104D9800BD4680BD00C0002000040000A400002023
:104DA8000801002080B400AF00BFBD4680BC70473A
:104DB80080B500AF114B124A1A60104B4FF4E13224
:104DC8005A600E4B00229A600C4B0022DA600B4BA3
:104DD80000221A61094B0C225A61084B00229A6181
:104DE800064B0022DA61054800F05AFF0346002B03
:104DF80001D0FFF7F6FE00BF80BD00BFA80000206D
:104E08000038014080B588B000AF786007F1100322
:104E180000221A605A609A60DA607B681B68164A3A
:104E2800934224D1154B9B69144A43F48043936100
:104E3800124B9B6903F48043FB60FB680F4B9B6933
:104E48000E4A43F0040393610C4B9B6903F004037F
:104E5800BB60BB684FF400733B6112237B61032383
:104E6800FB6107F110031946054800F043F900BF3C
:104E78002037BD4680BD00BF003801400010024009
:104E88000008014080B582B000AF7860391D4FF648
:104E9800FF730122034800F05BFF7B681846083760
:104EA800BD4680BDA800002080B586B000AFF86080
:104EB800B9607A6000237B6109E0BB685A1CBA605C
:104EC8001B781846FFF7DEFF7B6901337B617A693F
:104ED8007B689A42F1DB7B6818461837BD4680BD6F
:104EE800FFF760FF0B480C490C4A002302E0D45836
:104EF800C4500433C4188C42F9D3094A094C00231E
:104F080001E013600432A242FBD301F02DF9FFF750
:104F18004BFD70470000002074000020A08E0008A0
:104F28007400002004010020FEE7000080B485B072
:104F380000AF78607B6803F00703FB600C4BDB680D
:104F4800BB60BA684FF6FF031340BB60FB681A02E8
:104F5800BB68134343F0BF6343F40033BB60044AA8
:104F6800BB68D36000BF1437BD4680BC704700BF24
:104F780000ED00E080B400AF044BDB681B0A03F0CF
:104F880007031846BD4680BC704700BF00ED00E02F
:104F980080B483B000AF03463960FB7197F90730DE
:104FA800002B0ADB3B68DAB20C4997F9073012018B
:104FB800D2B20B4483F800230AE03B68DAB208490E
:104FC800FB7903F00F03043B1201D2B20B441A76AB
:104FD80000BF0C37BD4680BC704700BF00E100E051
:104FE80000ED00E080B489B000AFF860B9607A6085
:104FF800FB6803F00703FB61FB69C3F10703042B9C
:1050080028BF0423BB61FB690433062B02D9FB6963
:10501800033B00E000237B614FF0FF32BB6902FADB
:1050280003F3DA43BB681A407B699A404FF0FF31BB
:105038007B6901FA03F3D9437B680B401343184695
:105048002437BD4680BC704780B582B000AF786019
:105058007B68013BB3F1807F01D301230FE00A4A4B
:105068007B68013B53600F214FF0FF30FFF790FF43
:10507800054B00229A60044B07221A600023184649
:105088000837BD4680BD00BF10E000E080B582B0A3
:1050980000AF78607868FFF749FF00BF0837BD4662
:1050A80080BD80B586B000AF0346B9607A60FB73F7
:1050B80000237B61FFF75EFF78617A68B9687869D9
:1050C800FFF790FF024697F90F3011461846FFF791
:1050D8005FFF00BF1837BD4680BD80B582B000AF06
:1050E80078607868FFF7B0FF034618460837BD4672
:1050F80080BD000080B48BB000AF786039600023B9
:105108007B6200233B6279E101227B6A02FA03F3A6
:10511800FB613B681B68FA691340BB61BA69FB69AC
:105128009A4240F068813B685B68964A93425ED039
:10513800944A934275D8944A934258D0924A9342DB
:105148006FD8924A934252D0904A934269D8904A73
:1051580093424CD08E4A934263D88E4A934246D0AB
:105168008C4A93425DD8122B2AD8122B59D801A207
:1051780052F823F0F7510008D1510008E351000814
:10518800255200082B5200082B5200082B52000809
:105198002B5200082B5200082B5200082B520008F3
:1051A8002B5200082B5200082B5200082B520008E3
:1051B8002B5200082B520008D9510008ED51000865
:1051C800754A934213D02CE03B68DB683B6229E0C8
:1051D8003B68DB6804333B6224E03B68DB680833E8
:1051E8003B621FE03B68DB680C333B621AE03B68BC
:1051F8009B68002B02D104233B6213E03B689B6849
:10520800012B05D108233B627B68FA691A6109E022
:1052180008233B627B68FA695A6103E000233B621A
:1052280000E000BFBB69FF2B01D87B6801E07B6809
:1052380004337B61BB69FF2B02D87B6A9B0002E0C9
:105248007B6A083B9B003B617B691A680F213B69BD
:1052580001FA03F3DB431A40396A3B6901FA03F3A5
:105268001A437B691A603B685B6803F08053002B24
:1052780000F0C180494B9B69484A43F001039361A0
:10528800464B9B6903F00103BB60BB68444A7B6AD9
:105298009B08023352F82330FB607B6A03F0030358
:1052A8009B000F2202FA03F3DB43FA681340FB600A
:1052B8007B683C4A93421FD07B683B4A934219D093
:1052C8007B683A4A934213D07B68394A93420DD09F
:1052D8007B68384A934207D07B68374A934201D1AA
:1052E80005230AE0062308E0042306E0032304E07C
:1052F800022302E0012300E000237A6A02F003029D
:1053080092009340FA681343FB6025497B6A9B0827
:105318000233FA6841F823203B685B6803F4801382
:10532800002B06D0254B9A682449BB6913438B6030
:1053380006E0224B9A68BB69DB43204913408B6027
:105348003B685B6803F40013002B06D01B4BDA683C
:105358001A49BB691343CB6006E0184BDA68BB698E
:10536800DB4316491340CB603B685B6803F40033AA
:10537800002B25D0114B5A681049BB6913434B6069
:1053880025E000BF0000321000003110000022109C
:10539800000021100000121000001110001002403F
:1053A8000000014000080140000C014000100140CD
:1053B8000014014000180140001C01400004014095
:1053C800154B5A68BB69DB43134913404B603B6874
:1053D8005B6803F48033002B06D00F4B1A680E4924
:1053E800BB6913430B6006E00B4B1A68BB69DB43D0
:1053F800094913400B607B6A01337B623B681A687A
:105408007B6A22FA03F3002B7FF47EAE00BF00BF55
:105418002C37BD4680BC70470004014080B483B07F
:1054280000AF78600B467B8013467B707B78002B3F
:1054380003D07A887B681A6103E07B881A047B684A
:105448001A6100BF0C37BD4680BC704780B485B078
:1054580000AF78600B467B807B68DB68FB607A88EE
:10546800FB6813401A04FB68D9437B880B401A4336
:105478007B681A6100BF1437BD4680BC70470000C6
:1054880080B586B000AF78607B68002B01D101231E
:1054980072E27B681B6803F00103002B00F0878031
:1054A800924B5B6803F00C03042B0CD08F4B5B68AA
:1054B80003F00C03082B12D18C4B5B6803F4803388
:1054C800B3F5803F0BD1894B1B6803F40033002BE5
:1054D8006CD07B685B68002B68D101234CE27B6849
:1054E8005B68B3F5803F06D1804B1B687F4A43F465
:1054F800803313602EE07B685B68002B0CD17B4BFC
:105508001B687A4A23F480331360784B1B68774A08
:1055180023F4802313601DE07B685B68B3F5A02F3C
:105528000CD1724B1B68714A43F4802313606F4B94
:105538001B686E4A43F4803313600BE06B4B1B68A7
:105548006A4A23F480331360684B1B68674A23F464
:10555800802313607B685B68002B13D000F0D0FDBC
:10556800386108E000F0CCFD02463B69D31A642B91
:1055780001D9032300E25D4B1B6803F40033002BC1
:10558800F0D014E000F0BCFD386108E000F0B8FD90
:1055980002463B69D31A642B01D90323ECE1534B30
:1055A8001B6803F40033002BF0D100E000BF7B68D8
:1055B8001B6803F00203002B63D04C4B5B6803F0BD
:1055C8000C03002B0BD0494B5B6803F00C03082B32
:1055D8001CD1464B5B6803F48033002B16D1434B38
:1055E8001B6803F00203002B05D07B681B69012BA5
:1055F80001D00123C0E13D4B1B6823F0F8027B6812
:105608005B69DB00394913430B603AE07B681B692F
:10561800002B20D0364B01221A6000F071FD386152
:1056280008E000F06DFD02463B69D31A022B01D950
:105638000323A1E12D4B1B6803F00203002BF0D0DC
:105648002A4B1B6823F0F8027B685B69DB0027495B
:1056580013430B6015E0264B00221A6000F050FD42
:10566800386108E000F04CFD02463B69D31A022B72
:1056780001D9032380E11D4B1B6803F00203002BB3
:10568800F0D17B681B6803F00803002B3AD07B68D5
:105698009B69002B19D0174B01221A6000F030FDCE
:1056A800386108E000F02CFD02463B69D31A022B52
:1056B80001D9032360E10D4B5B6A03F00203002B61
:1056C800F0D0012000F0CEFA1CE00A4B00221A604C
:1056D80000F016FD38610FE000F012FD02463B694C
:1056E800D31A022B08D9032346E100BF0010024059
:1056F8000000424280044242924B5B6A03F002037C
:10570800002BE9D17B681B6803F00403002B00F031
:10571800A6800023FB758B4BDB6903F08053002BBD
:105728000DD1884BDB69874A43F08053D361854BA1
:10573800DB6903F08053BB60BB680123FB75824BB8
:105748001B6803F48073002B18D17F4B1B687E4ABB
:1057580043F48073136000F0D3FC386108E000F074
:10576800CFFC02463B69D31A642B01D9032303E11A
:10577800754B1B6803F48073002BF0D07B68DB68E3
:10578800012B06D16F4B1B6A6E4A43F0010313626B
:105798002DE07B68DB68002B0CD16A4B1B6A694AD9
:1057A80023F001031362674B1B6A664A23F0040364
:1057B80013621CE07B68DB68052B0CD1614B1B6A0C
:1057C800604A43F0040313625E4B1B6A5D4A43F070
:1057D800010313620BE05B4B1B6A5A4A23F0010377
:1057E8001362584B1B6A574A23F0040313627B6801
:1057F800DB68002B15D000F083FC38610AE000F06C
:105808007FFC02463B69D31A41F28832934201D9A0
:105818000323B1E04B4B1B6A03F00203002BEED0CD
:1058280014E000F06DFC38610AE000F069FC024603
:105838003B69D31A41F28832934201D903239BE092
:10584800404B1B6A03F00203002BEED1FB7D012BBA
:1058580005D13C4BDB693B4A23F08053D3617B681D
:10586800DB69002B00F08780364B5B6803F00C0384
:10587800082B61D07B68DB69022B46D1334B0022B1
:105888001A6000F03DFC386108E000F039FC02467F
:105898003B69D31A022B01D903236DE0294B1B68FE
:1058A80003F00073002BF0D17B681B6AB3F5803FCF
:1058B80008D1244B5B6823F400327B689B6821493C
:1058C80013434B601F4B5B6823F474127B68196A9F
:1058D8007B685B6A0B431B4913434B601B4B0122DC
:1058E8001A6000F00DFC386108E000F009FC02467F
:1058F8003B69D31A022B01D903233DE0114B1B68E6
:1059080003F00073002BF0D035E0104B00221A6032
:1059180000F0F6FB386108E000F0F2FB02463B6954
:10592800D31A022B01D9032326E0064B1B6803F088
:105938000073002BF0D11EE07B68DB69012B07D1D7
:10594800012319E00010024000700040600042424C
:105958000B4B5B68FB60FB6803F480327B681B6A57
:105968009A4206D1FB6803F470127B685B6A9A421C
:1059780001D0012300E0002318461837BD4680BD3A
:105988000010024080B584B000AF786039607B6851
:10599800002B01D10123D0E06A4B1B6803F00703F9
:1059A8003A689A4210D9674B1B6823F00702654989
:1059B8003B6813430B60634B1B6803F007033A68AB
:1059C8009A4201D00123B8E07B681B6803F0020308
:1059D800002B20D07B681B6803F00403002B05D044
:1059E800594B5B68584A43F4E06353607B681B6813
:1059F80003F00803002B05D0534B5B68524A43F46D
:105A080060535360504B5B6823F0F0027B689B68DF
:105A18004D4913434B607B681B6803F00103002B5F
:105A280040D07B685B68012B07D1474B1B6803F4A8
:105A38000033002B15D101237FE07B685B68022BC4
:105A480007D1414B1B6803F00073002B09D10123D8
:105A580073E03D4B1B6803F00203002B01D10123C7
:105A68006BE0394B5B6823F003027B685B6836495F
:105A780013434B6000F044FBF8600AE000F040FB81
:105A88000246FB68D31A41F28832934201D90323B4
:105A980053E02D4B5B6803F00C027B685B689B004E
:105AA8009A42EBD1274B1B6803F007033A689A42E6
:105AB80010D2244B1B6823F0070222493B6813438A
:105AC8000B60204B1B6803F007033A689A4201D029
